S00D0000436C6F636B2E737265632B
S113000054C0000071C0000080C000008FC0000018
S11300106AC0000068C0000066C0000064C0000040
S113002062C0000060C000005EC000005CC0000050
S11300305AC0000058C0000056C0000054C0000060
S11300408BC2000050C000004EC000004CC0000035
S11300504AC0000048C0000046C0000044C0000080
S113006042C0000040C000003EC000003CC0000090
S11300703AC0000038C0000036C0000034C00000A0
S113008032C0000030C000002EC0000005A84CCDD6
S1130090B2D44EB93836A9020C50B9918688083CBE
S11300A0A6AAAA2ABE000000803F11241FBECFEFDB
S11300B0D0E1DEBFCDBF13E0A0E0B1E0E0EDF2E1BE
S11300C000E00BBF02C007900D92A631B107D9F72B
S11300D027E0A6E1B3E001C01D92AE32B207E1F71A
S11300E015D30C9466098CCF1F920F920FB60F9202
S11300F011248F9380911E03809580931E038F910A
S11301000F900FBE0F901F9018951F920F920FB66D
S11301100F9211248F9380911C03809580931C036C
S11301208F910F900FBE0F901F9018951F920F92F2
S11301300FB60F9211248F9380912703809580939B
S113014027038F910F900FBE0F901F90189582E098
S113015080936A0087E089BF11BA08958F929F92B5
S1130160AF92BF92CF92DF92EF92FF92CF93DF9341
S11301709C01220F331F820F931F880F991FBC010C
S1130180625F7E4F693621E0720714F06856714051
S1130190072E000C880B990B8FD62EE23AEF4EE80F
S11301A05CE353D76B017C01B3D74B015C01C701FE
S11301B0B601E9D520E030E040E751E446D720E03D
S11301C030E040E752E47BD549D6D62F20E030E03A
S11301D040E751E4C501B40138D720E030E040EFF6
S11301E051E46DD53BD6C62F41E06D2F8C2F86D4BC
S11301F02D2F4C2F6CE38EE1F9D3DF91CF91FF903B
S1130200EF90DF90CF90BF90AF909F908F90089524
S11302108F929F92AF92BF92CF92DF92EF92FF9212
S1130220CF93DF9349015A0120E030E040EF51E4DD
S11302300CD76B017C0120E030E040EC50E4C501B8
S1130240B40103D720E030E040E752E49FD520E03A
S113025030E047E853E433D5A701960130D56B016C
S11302607C0120E030E044EB53E4EBD618164CF468
S113027020E030E044EB53E4C701B6011FD56B0125
S11302807C012EE23AEF4EE85CE3C701B601DDD60D
S11302904B015C013DD720E030E040E051E4D5D68D
S11302A020E030E040EF51E40AD56B017C01C50148
S11302B0B40169D520E030E040E051E4C6D620E046
S11302C030E040E752E4FBD4C9D5C62FC701B601DC
S11302D0C5D5D62F41E06C2F8D2F10D42C2F4D2F48
S11302E06CE38EE183D320E030E040E85FE3C701B4
S11302F0B601E5D4B3D5462F2C2F6CE38EE176D32B
S113030020E030E040E85FE3C701B601D7D4A6D5CA
S1130310462F2C2F6CE38EE169D3DF91CF91FF90B0
S1130320EF90DF90CF90BF90AF909F908F90089503
S11303308F929F92AF92BF92CF92DF92EF92FF92F1
S113034020E030E040EC50E480D620E030E047E8A4
S113035053E4B5D46B017C0120E030E044EB53E47A
S113036070D618164CF420E030E044EB53E4C70197
S1130370B601A4D46B017C012EE23AEF4EE85CE3B3
S1130380C701B60162D66B017C01C2D64B015C0188
S1130390C701B601F8D420E030E040EB51E455D673
S11303A020E030E040E752E48AD458D5F62E20E02D
S11303B030E040EB51E4C501B40147D620E030E021
S11303C040EF51E47CD44AD5862F41E06F2D96D37B
S11303D0FF90EF90DF90CF90BF90AF909F908F9061
S11303E0089587E083BF12BE80E88FBF81E087BF96
S11303F008951BBA8FEF8ABB88BB87BB15BA90EFF1
S113040094BB90E892BB91BB13B882B9109262007E
S1130410109261000895F894ECDF0ED27894089558
S1130420F9D14AEE52E060E080E052C20895CF92E2
S1130430DF92EF92FF924CED52E060E080E048D210
S113044049E16CE38EE15AD3609121037091220358
S1130450072E000C880B990B2FD56ADF80911F03A0
S1130460909120037BDE60911F0370912003072E7F
S1130470000C880B990B20D56B017C0160911A0349
S113048070911B03072E000C880B990B15D5A7013F
S11304909601BEDE61E087E0D8D180911A03EBD3E8
S11304A044EE52E064E087E013D267E087E0CDD108
S11304B080911F03E0D346EE52E06AE087E008D261
S11304C06DE087E0C2D180912103D5D340E053E0B1
S11304D060E187E0FDD1FF90EF90DF90CF90089529
S11304E048EE52E060E080E0F3D140EF52E060E09B
S11304F081E0EED160E084E0A8D180912803BBD3F1
S113050044EE52E063E084E0E3D165E084E09DD111
S113051080912503B0D346EE52E068E084E0D8D160
S11305206AE084E092D180911803A5D340E053E0BF
S11305306DE084E0CDD16FE084E087D18091230326
S11305409AD34FEF52E062E184E0C2D142E053E03B
S113055060E087E0BDC108951F920F920FB60F921D
S113056011240BB60F922F933F934F935F936F9386
S11305707F938F939F93AF93BF93EF93FF93809158
S11305801D038F5F80931D03209116033091170381
S1130590232B51F020912303309124032F5F3F4FED
S11305A030932403209323032091230330912403C5
S11305B028333105D1F520911803309119032F5FA9
S11305C03F4F309319032093180310922403109281
S11305D023032B3331058CF02B33310521F4109296
S11305E019031092180320912503309126032F5FDD
S11305F03F4F309326032093250320912503309108
S113060026032B3331058CF02B33310521F4109262
S113061026031092250320912803309129032F5F8C
S11306203F4F3093290320932803883309F048C0AF
S11306308091210390912203019690932203809349
S1130640210380910001880F81608F3F19F080930E
S1130650000103C08EEF809300018091000188BBEC
S113066010921D0380912103909122038B339105F5
S113067084F0CB9721F410922203109221038091ED
S11306801F039091200301969093200380931F03EE
S1130690C1D080911F03909120038B3391057CF08E
S11306A0CB9721F41092200310921F0380911A0318
S11306B090911B03019690931B0380931A03AAD075
S11306C0FF91EF91BF91AF919F918F917F916F9126
S11306D05F914F913F912F910F900BBE0F900FBEE2
S11306E00F901F90189510922403109223031092D8
S11306F019031092180310922603109225031092E6
S113070029031092280310921C03089584DE88DEC6
S113071068DE1092270310921C0319DD8FEF87BB4C
S11307208FE088BB10921E03C1E0D0E080911E03CD
S1130730882311F0D5DE01C07ADE80912703882357
S113074029F0D0931703C093160304C01092170323
S11307501092160380911C03882341F3C4DFE6CF73
S11307601D9A91E39A95F1F700001C981E981F9A20
S11307708BBB81E38A95F1F700001D9808951D9ABB
S113078091E39A95F1F700001C981E9A1F988BBB71
S113079081E38A95F1F700001D9808951D9A91E36D
S11307A09A95F1F700001C981E9A1F9A8BBB81E35F
S11307B08A95F1F700001D9808951D9A91E39A9582
S11307C0F1F700001C9A1E981F9A8BBB81E38A954F
S11307D0F1F700001D9808951D9A91E39A95F1F799
S11307E000001C9A1E9A1F988BBB81E38A95F1F72F
S11307F000001D9808951D9A91E39A95F1F7000061
S11308001C9A1E9A1F9A8BBB81E38A95F1F700000C
S11308101D980895CF93DF93D8EB8D2FBFDF80E42D
S1130820BDDFC0E480E0E7DFC150E1F7DF5FD03C2B
S1130830A1F7DF91CF9108958FE3B0DF80ECAEDFB5
S113084088EBACDF80E4AACF089580932A036093F9
S11308502D078854A3DF80912D078A3038F4982F10
S1130860990F890F880F8C5B7BCF089590E00A97CE
S1130870982F990F890F880F805C81CF08951F935B
S1130880CF93DF9390E0EC01CC0FDD1FCC0FDD1F85
S11308908C0F9D1FEC01CF59DF4F15E080912D0780
S11308A08A3018F4888189DF02C0888195DF11506D
S11308B021961111F3CF80912D078A3018F480E02E
S11308C07CDF02C080E088DFDF91CF911F91089523
S11308D0CF93DF93EA0180932A0360932D07B5DF5A
S11308E08881882381F080912D078A3011F480E477
S11308F046DF8991C4DF80912D078F5F80932D0798
S113090088818111F0CFDF91CF910895CF93C62FC5
S1130910885444DFC03420F480E48C0F21DF02C00B
S11309208C2F2DDFCF910895EF92FF920F931F9399
S1130930CF93803408F054C066230CF451C0282FA0
S1130940269526952695982F977071F0913071F021
S1130950923071F0933071F0943071F0953071F001
S1130960963071F090E80DC091E00BC092E009C0A0
S113097094E007C098E005C090E103C090E201C094
S113098090E4C62F022F10E0E62EF12CF801F69524
S1130990FE2FEE27F795E795E35DFC4FEE0DFF1D67
S11309A08081982B9083822FB1DFC03468F4169530
S11309B0102F002717950795035D1C4FF801EE0DC6
S11309C0FF1D8081FADE0CC01695102F00271795A5
S11309D00795035D1C4FF801EE0DFF1D8081FCDEC1
S11309E0CF911F910F91FF90EF9008958F929F9256
S11309F0AF92BF92CF92DF92EF92FF920F931F9329
S1130A00CF93DF93621709F447C0621718F570E0BB
S1130A10022F10E0061717070CF463C0C82FD0E0AC
S1130A20C42ED12CCC1ADD0A4B01E12CF12C580137
S1130A30A61AB70AC701B50122D4862F682D8C0FD8
S1130A4073DF8FEF881A980AEC0CFD1C0815190542
S1130A508CF747C070E0022F10E0601771070CF4A8
S1130A6040C0C82FD0E05E01A41AB1084B01E12CAC
S1130A70F12C6801C61AD70AC701B60100D4862F23
S1130A80682D8C0F51DF81E0881A9108EA0CFB1C59
S1130A90801691068CF725C0841711F1841780F411
S1130AA0C82FD0E0E42EF12CEC16FD06D4F0162F5E
S1130AB0612F8C2F39DF2196EC16FD06CCF711C07F
S1130AC0C82FD0E0E42EF12CCE15DF0554F0162FFC
S1130AD0612F8C2F29DF2197CE15DF05CCF701C0BC
S1130AE023DFDF91CF911F910F91FF90EF90DF9063
S1130AF0CF90BF90AF909F908F9008952F923F9288
S1130B004F925F926F927F928F929F92AF92BF9219
S1130B10CF92DF92EF92FF920F931F93CF93DF93C5
S1130B20382E262E062F10E0642E712C2301440C3F
S1130B30551C460C571C5594479455944794E8010A
S1130B40C419D509040D151D0C171D077CF1669CED
S1130B506001679CD00CD00C1124E62EF12CCE0140
S1130B608E199F09889F9001899F300D300D1124A3
S1130B704601821A930A092C000CAA08BB08C50175
S1130B80B4019AD1CFD220E030E040E05FE397D0C7
S1130B9065D1B62E6C2F832D8B0DC6DE6C2F832D65
S1130BA08B19C2DE21960C171D07CCF6832D90E01D
S1130BB0EC01C419D509480E591E4C165D0674F192
S1130BC0669C8001679C100D100D11247C01CE01E0
S1130BD08E199F09889F9001899F300D300D112433
S1130BE04801821A930A092C000CAA08BB08C50103
S1130BF0B40162D197D220E030E040E05FE35FD0FF
S1130C002DD1D62E622D6D0D8C2F8EDE622D6D1999
S1130C108C2F8ADE21964C165D06CCF6DF91CF919F
S1130C201F910F91FF90EF90DF90CF90BF90AF9006
S1130C309F908F907F906F905F904F903F902F90F8
S1130C4008959DEC899F912D1124969596959695DE
S1130C50990F292F220F220F920F891B982F31F4FD
S1130C60611104C080E20BDE80E0089580E3890F07
S1130C7006DE81E00895CF93DF93C9E28C9FC12DF6
S1130C801124C295CF7094E6C99F80191124C82FEE
S1130C90DDEC8D9FD12D1124D695D695D69560E0A7
S1130CA08D2FCFDFDD0F8D2F880F880FD80F8C2F5E
S1130CB08D1B805DE4DDDF91CF9108955058BB27F3
S1130CC0AA270ED073C13CD130F041D120F031F4C9
S1130CD09F3F11F41EF431C10EF4E095E7FB27C1E8
S1130CE0E92F86D180F3BA17620773078407950743
S1130CF018F071F49EF59EC10EF4E0950B2EBA2FF8
S1130D00A02D0B01B90190010C01CA01A00111240D
S1130D10FF27591B99F0593F50F4503E68F11A16B9
S1130D20F040A22F232F342F4427585FF3CF46954A
S1130D3037952795A795F0405395C9F77EF41F166C
S1130D40BA0B620B730B840BBAF09150A1F0FF0F36
S1130D50BB1F661F771F881FC2F70EC0BA0F621F22
S1130D60731F841F48F4879577956795B795F79512
S1130D709E3F08F0B3CF9395880F08F09927EE0FA4
S1130D80979587950895EBD0E39521C10CD00EC1BA
S1130D90DED040F0D5D030F021F45F3F19F0C7C069
S1130DA0511149C1CAC024D198F39923C9F35523D9
S1130DB0B1F3951B550BBB27AA276217730784074A
S1130DC038F09F5F5F4F220F331F441FAA1FA9F300
S1130DD033D00E2E3AF0E0E830D091505040E695F2
S1130DE0001CCAF729D0FE2F27D0660F771F881F53
S1130DF0BB1F261737074807AB07B0E809F0BB0B42
S1130E00802DBF01FF2793585F4F2AF09E3F510565
S1130E1068F08DC010C15F3FECF3983EDCF386951B
S1130E2077956795B795F7959F5FC9F7880F911DDB
S1130E309695879597F90895E1E0660F771F881FC7
S1130E40BB1F621773078407BA0720F0621B730B7A
S1130E50840BBA0BEE1F88F7E0950895D1D088F083
S1130E609F5790F0B92F9927B751A0F0D1F0660F92
S1130E70771F881F991F1AF0BA95C9F712C0B130AD
S1130E8081F0D8D0B1E00895D5C0672F782F882796
S1130E90B85F39F0B93FCCF3869577956795B395EC
S1130EA0D9F73EF490958095709561957F4F8F4F5B
S1130EB09F4F0895E89409C097FB3EF49095809560
S1130EC0709561957F4F8F4F9F4F9923A9F0F92F0C
S1130ED096E9BB279395F695879577956795B7958A
S1130EE0F111F8CFFAF4BB0F11F460FF1BC06F5F70
S1130EF07F4F8F4F9F4F16C0882311F096E911C082
S1130F00772321F09EE8872F762F05C0662371F0A2
S1130F1096E8862F70E060E02AF09A95660F771FB6
S1130F20881FDAF7880F9695879597F9089597F9AA
S1130F309F6780E870E060E008959FEF80EC08957B
S1130F4000240A94161617061806090608950024A4
S1130F500A9412161306140605060895EECF50D00F
S1130F60E8F3E894E0E0BB279F57F0F02AED3FE078
S1130F7049EC06C0EE0FBB0F661F771F881F28F0D1
S1130F80B23A62077307840728F0B25A620B730BF4
S1130F90840BE3959A9572F7803830F49A95BB0FD9
S1130FA0661F771F881FD2F7904820C1092E03942B
S1130FB0000C11F4882352F0BB0F40F4BF2B11F442
S1130FC060FF04C06F5F7F4F8F4F9F4F0895EF9373
S1130FD0E0FF06C0A2EA2AED3FE049EC5FEB80DEC9
S1130FE0E5DF0F90039401FC9058ECE8F0E011C1A8
S1130FF057FD9058440F551F59F05F3F71F04795C6
S1131000880F97FB991F61F09F3F79F087950895AA
S1131010121613061406551FF2CF4695F1DF08C0C9
S1131020161617061806991FF1CF869571056105E6
S113103008940895E894BB2766277727CB0197F98E
S11310400895AED008F48FEF08950BD0AFCF78DFBA
S113105028F07DDF18F0952309F069CF6ECF1124B5
S1131060EACFC6DFA0F3959FD1F3950F50E0551F4B
S1131070629FF001729FBB27F00DB11D639FAA27E9
S1131080F00DB11DAA1F649F6627B00DA11D661F38
S1131090829F2227B00DA11D621F739FB00DA11D59
S11310A0621F839FA00D611D221F749F3327A00D13
S11310B0611D231F849F600D211D822F762F6A2FAF
S11310C011249F5750408AF0E1F088234AF0EE0F34
S11310D0FF1FBB1F661F771F881F91505040A9F741
S11310E09E3F510570F023CFA6CF5F3FECF3983EAF
S11310F0DCF3869577956795B795F795E7959F5FA8
S1131100C1F7FE2B880F911D9695879597F9089541
S11311109F9325DF0F9007FCEE5F59CF11F40EF477
S11311200CCF62C06DDFD0F39923D9F3CEF39F5770
S1131130550B87FF67D00024A0E640EA9001805851
S11311405695979528F4805C660F771F881F20F0CA
S113115026173707480730F4621B730B840B2029CA
S113116031294A2BA69517940794202531254A271F
S113117058F7660F771F881F20F026173707480790
S113118030F4620B730B840B200D311D411DA095AF
S113119081F7B901842F9158880F96958795089502
S11311A0990F0008550FAA0BE0E8FEEF1616170674
S11311B0E807F907C0F012161306E407F50798F0DC
S11311C0621B730B840B950B39F40A2661F0232BF5
S11311D0242B252B21F408950A2609F4A140A69571
S11311E08FEF811D811D08959F3F31F0915020F4B0
S11311F0879577956795B795880F911D96958795EF
S113120097F9089591505040660F771F881FD2F7C1
S113121008959F938F937F936F93FF93EF939B0115
S1131220AC0113DFEF91FF9105D02F913F914F91C6
S11312305F910BCFDF93CF931F930F93FF92EF92A6
S1131240DF927B018C01689405C0DA2EEF0109DF7F
S1131250FE01E894A5912591359145915591AEF300
S1131260EF013EDDFE019701A801DA9479F7DF90E2
S1131270EF90FF900F911F91CF91DF91089597FB0D
S1131280072E16F4009406D077FD08D00BD007FC87
S113129005D03EF4909581959F4F08957095619582
S11312A07F4F0895AA1BBB1B51E107C0AA1FBB1F98
S11312B0A617B70710F0A61BB70B881F991F5A95DE
S11312C0A9F780959095BC01CD010895F894FFCFBE
S11312D0FE000000000000004F00000007000700AF
S11312E0147F147F14242A7F2A122313086462367D
S11312F0495522500005030000001C224100004112
S1131300221C0014083E081408083E080800503047
S113131000000808080808006060000020100804A5
S1131320023E5149453E00427F40004261514946D8
S11313302141454B311814127F1027454545393C4E
S11313404A49493001710905033649494936064974
S113135049291E00363600000056360000081422C3
S113136041001414141414004122140802015109F8
S113137006324979413E7E1111117E7F4949493631
S11313803E414141227F4141221C7F494949417FDD
S1131390090909013E4149497A7F0808087F00414B
S11313A07F41002040413F017F081422417F40409B
S11313B040407F020C027F7F0408107F3E41414180
S11313C03E7F090909063E4151215E7F09192946DC
S11313D0264949493201017F01013F4040403F1FF6
S11313E02040201F3F4038403F631408146307081F
S11313F07008076151494543007F414100020408D8
S113140010200041417F000402010204404040409A
S113141040000102040020545454787F4844443866
S11314203844444420384444487F385454541808B9
S11314307E0901020C5252523E7F080404780004D3
S11314407D00002040443D007F1028440000417F7F
S113145040007C0418047C7C080404783844444428
S1131460387C14141408081414187C7C0804040828
S11314704854545420043F4440203C4040207C1CA9
S11314802040201C3C4030403C44281028440C5050
S113149050503C4464544C440008364100000077EA
S11314A00000004136080008040810083E3E544974
S11314B04D45520068006D00202054494D455200AE
S11314C03E3E53544F502057415443483C3C0073D4
S11314D073004D454E55207C205245534554207C85
S10914E02053544F50009C
S9030000FC
